{"abi":[{"type":"function","name":"transferFunds","inputs":[{"name":"_to","type":"address","internalType":"address payable"}],"outputs":[],"stateMutability":"payable"},{"type":"event","name":"FundsTransferred","inputs":[{"name":"from","type":"address","indexed":true,"internalType":"address"},{"name":"to","type":"address","indexed":true,"internalType":"address"},{"name":"amount","type":"uint256","indexed":false,"internalType":"uint256"}],"anonymous":false}],"bytecode":{"object":"0x6080604052348015600e575f5ffd5b506103698061001c5f395ff3fe60806040526004361061001d575f3560e01c8063e39ff19f14610021575b5f5ffd5b61003b600480360381019061003691906101f7565b61003d565b005b5f73ffffffffffffffffffffffffffffffffffffffff168173ffffffffffffffffffffffffffffffffffffffff16036100ab576040517f08c379a00000000000000000000000000000000000000000000000000000000081526004016100a29061027c565b60405180910390fd5b5f34116100ed576040517f08c379a00000000000000000000000000000000000000000000000000000000081526004016100e4906102e4565b60405180910390fd5b8073ffffffffffffffffffffffffffffffffffffffff166108fc3490811502906040515f60405180830381858888f19350505050158015610130573d5f5f3e3d5ffd5b508073ffffffffffffffffffffffffffffffffffffffff163373ffffffffffffffffffffffffffffffffffffffff167f78e6250172d8e0a57d8d41f480f13581571a2d27bb2a93f5f7bd2511f5c22a6c3460405161018e919061031a565b60405180910390a350565b5f5ffd5b5f73ffffffffffffffffffffffffffffffffffffffff82169050919050565b5f6101c68261019d565b9050919050565b6101d6816101bc565b81146101e0575f5ffd5b50565b5f813590506101f1816101cd565b92915050565b5f6020828403121561020c5761020b610199565b5b5f610219848285016101e3565b91505092915050565b5f82825260208201905092915050565b7f496e76616c696420726563697069656e742061646472657373000000000000005f82015250565b5f610266601983610222565b915061027182610232565b602082019050919050565b5f6020820190508181035f8301526102938161025a565b9050919050565b7f596f75206d7573742073656e6420736f6d6520457468657200000000000000005f82015250565b5f6102ce601883610222565b91506102d98261029a565b602082019050919050565b5f6020820190508181035f8301526102fb816102c2565b9050919050565b5f819050919050565b61031481610302565b82525050565b5f60208201905061032d5f83018461030b565b9291505056fea26469706673582212200e47c478581bab6c096b52c27ef31d5e9b7554efa9a549d5c0189d24418f8cb864736f6c634300081c0033","linkReferences":{}},"methodIdentifiers":{"transferFunds(address)":"e39ff19f"},"id":22}